:020000040800F2
:10000000C808002031020008692E0008DD2C000815
:10001000652E0008C1060008E53000080000000059
:10002000000000000000000000000000C9300008CF
:10003000C5060008000000006D2E0008CD30000845
:100040004B0200084B0200084B0200084B0200085C
:100050004B0200084B0200084B0200084B0200084C
:100060004B0200084B0200084B0200084B0200083C
:100070004B0200084B0200084B0200084B0200082C
:100080004B0200084B0200084B0200084B0200081C
:100090004B0200084B0200084B0200084B0200080C
:1000A0004B0200084B0200084B0200084B020008FC
:1000B0004B0200084B0200084B0200084B020008EC
:1000C0004B0200084B0200084B0200084B020008DC
:1000D0004B0200084B0200084B0200084B020008CC
:1000E0004B0200084B0200084B0200084B020008BC
:1000F0004B0200084B0200084B0200084B020008AC
:100100000000000000000000000000004B0200089A
:100110004B0200084B0200084B0200084B0200088B
:100120004B0200084B0200084B0200084B0200087B
:100130004B0200084B020008000000000000000015
:100140004B0200084B0200084B02000800000000B0
:10015000000000000000000000000000000000009F
:1001600000000000000000004B0200084B020008E5
:100170004B0200080000000000000000000000002A
:10018000000000004B02000800F002F800F040F808
:100190000AA090E8000C82448344AAF10107DA45E2
:1001A00001D100F035F8AFF2090EBAE80F0013F0F4
:1001B000010F18BFFB1A43F001031847A4300000D9
:1001C000C4300000103A24BF78C878C1FAD852076A
:1001D00024BF30C830C144BF04680C6070470000C1
:1001E0000023002400250026103A28BF78C1FBD840
:1001F000520728BF30C148BF0B6070471FB503F0DE
:100200000AF89DE8030000F029F91FBD10B510BDE4
:1002100000F0D4F91146FFF7F1FF02F065FF00F09E
:10022000F2F903B4FFF7F2FF03BC00F023FA000079
:100230000948804709480047FEE7FEE7FEE7FEE77A
:10024000FEE7FEE7FEE7FEE7FEE7FEE704480549B6
:10025000054A064B70470000D130000889010008AC
:10026000C8020020C8080020C8040020C8040020DC
:1002700070B5A0FB0140B4F1805170F1000024BFC3
:10028000002070BD204600F007F805001CBF214685
:1002900000F04CF9284670BD70B5064600F0C2F873
:1002A000056806F10B0020F00704B4429CBF002053
:1002B00070BD2B466A68BAB11068A04210D304F131
:1002C000080188423CBF5068586007D35168101934
:1002D00041601168091B016058601460101D70BDF9
:1002E00013465268002AE7D12146284600F0A2F8BA
:1002F0000028DED170BD70B50446051F00F092F8ED
:100300000068002C14BF446870BD002C18BFAC42BC
:100310003CBF20466468F8D301680A18AA4218BF97
:10032000456003D12A6805461144016028684119D7
:10033000A1421CBF6C6070BD61686960216808449F
:10034000286070BD032A40F2308010F0030C00F0EA
:10035000158011F8013BBCF1020F624498BF11F8FF
:1003600001CB00F8013B38BF11F8013BA2F10402B8
:1003700098BF00F801CB38BF00F8013B11F0030330
:1003800000F0A280083AC0F0088051F8043B083A17
:1003900051F804CBA0E80810F5E7121D5CBF51F836
:1003A000043B40F8043BAFF30080D20724BF11F8B0
:1003B000013B11F801CB48BF11F8012B24BF00F815
:1003C000013B00F801CB48BF00F8012B70474FF00C
:1003D000000200B5134694469646203922BFA0E895
:1003E0000C50A0E80C50B1F12001BFF4F7AF0907A1
:1003F00028BFA0E80C5048BF0CC05DF804EB890092
:1004000028BF40F8042B08BF704748BF20F8022BD4
:1004100011F0804F18BF00F8012B704770477047EC
:100420007047000000487047180000207047704770
:100430007047704738B504460A4600206946AFF356
:100440000080002808BF38BD02460099204600F011
:1004500093F8012038BD012000F0A8B8F8B5AFF33B
:100460000080054600200C46102000BF0646A81953
:10047000A0420DD9324669460020AFF30080070044
:1004800008BF00F093F80098A04218BF0546C419B1
:10049000FFF7C8FF05600746F01D20F0070046196A
:1004A000284600F00AF8B44208BFF8BDA21B314646
:1004B0003868BDE8F84000F05FB800210160C0E98D
:1004C000011070471020704710B5203AC0F00B8023
:1004D000B1E81850A0E81850B1E81850A0E818503A
:1004E000203ABFF4F5AF5FEA027C24BFB1E81850B0
:1004F000A0E8185044BF18C918C0BDE810405FEA12
:10050000827C24BF51F8043B40F8043B08BF70478D
:10051000D20728BF31F8023B48BF11F8012B28BF92
:1005200020F8023B48BF00F8012B70474FF0000253
:100530000429C0F0128010F0030C3FF44AAFCCF154
:10054000040CBCF1020F18BF00F8012BA8BF20F863
:10055000022BA1EB0C01FFF73CBF5FEAC17C24BF7B
:1005600000F8012B00F8012B48BF00F8012B704761
:100570000048704710000020034640688C46002861
:1005800018BF88423CBF03464068F8D31868184437
:10059000884207D00CF1030020F00700001D411A2B
:1005A000521A0146081D0A60FFF7A5BE10B500F0FB
:1005B00039F8BDE8104000F02FB870477546FFF7D6
:1005C000D7FFAE4605006946534620F00700854632
:1005D00018B020B5FFF73AFEBDE820404FF0000606
:1005E0004FF000074FF000084FF0000BAC46ACE8AE
:1005F000C009ACE8C009ACE8C009ACE8C00921F00A
:1006000007018D46704710B50446AFF300802046C1
:10061000BDE81040FFF705BE002801D000F02AB861
:100620007047000010B5012805D0002103A000F09C
:1006300027F8012010BD09A1F8E7000053494752EF
:10064000544D454D3A204F7574206F6620686561A2
:1006500070206D656D6F7279000000003A2048656A
:100660006170206D656D6F727920636F7272757045
:100670007465640001491820ABBEFEE72600020045
:1006800070B505460C460A2000E06D1C00F011F81C
:1006900035B128780028F8D102E0641C00F009F890
:1006A00014B120780028F8D1BDE870400A20AFF3DB
:1006B000008008B569468DF800000320ABBE08BD78
:1006C000FEE7000070470000EFF3108072B600BF35
:1006D000FEE700002DE9F04381B0951C88460446F2
:1006E000012029469146FFF7C3FD06462846FFF73D
:1006F000D3FD747040F6000407463C20C4F60004A5
:10070000307020464FF40051002201F0ABFB40F264
:1007100060204FF0FF3CC2F2000031463A462B46C3
:10072000CDF800C002F052F9054620464FF40051C2
:10073000012201F097FB25B9B91C40464A46FFF754
:1007400001FE3046FFF7D7FD3846FFF7D4FD2846B7
:1007500001B0BDE8F083000070B584B0054640F6F6
:1007600000044CF23C10C4F60004039000200290F8
:1007700020464FF40051002201F074FB40F260204B
:100780004FF0FF36C2F2000003A902AA032300962D
:1007900002F01CF9064620464FF40051012201F0F8
:1007A00061FB0EB1687902E09DF80A0068714CF2B5
:1007B00033118DF80E000020ADF80C108DF80F00ED
:1007C000029020464FF40051002201F04BFB40F212
:1007D0006025C2F200054FF0FF3603A902AA2846A1
:1007E0000323009602F0F2F8284602F043F80128AD
:1007F000FAD120464FF40051012201F033FB04B03E
:1008000070BD00002DE9F04184B040F600080446B8
:10081000C4F6000840F63C400390002540464FF4E3
:1008200000510022029501F01DFB40F260204FF0C4
:10083000FF37C2F2000003A902AA0323009702F0C7
:10084000C5F8064640464FF40051012201F00AFB6C
:1008500016B99DF80A0060734DF23C300390404693
:100860004FF400510022029501F0FCFA40F26020A2
:10087000C2F2000003A902AA0323009702F0A6F81F
:10088000064640464FF40051012201F0EBFA16B93A
:100890009DF80A006072637CC3200721042201F0E6
:1008A0006BF9A37CC3200321042201F065F9C42065
:1008B00007210122012301F05FF9A0794CF23321D5
:1008C0008DF80E000020ADF80C108DF80F0002908E
:1008D00040464FF40051002201F0C4FA40F2602675
:1008E000C2F200064FF0FF3703A902AA30460323E5
:1008F000009702F06BF800BF304601F0BBFF012803
:10090000FAD140464FF40051012201F0ABFA2046E3
:1009100001F08AF8204601F003F8204600F0BEFFFF
:10092000204601F0E7F8204600F076FF204601F06F
:1009300039F804B0BDE8F08170B584B004464CF2DB
:100940003C4040F6000503900020C4F600050290EC
:1009500028464FF40051002201F084FA40F2602052
:100960004FF0FF36C2F2000003A902AA032300964B
:1009700002F02CF8064628464FF40051012201F0FF
:1009800071FA1EB10020E07104B070BD9DF80A003C
:1009900000F01F00E07104B070BD0000C42007210A
:1009A0000122012301F0E8B803460079197E00F026
:1009B000FD000022012801EB410008BF03224FEA9D
:1009C000400C901F9A7603F11B01C0B25FFA8CF2C3
:1009D00083F819C0FFF77EBE70B584B004464CF2B0
:1009E0003C1040F6000503900020C4F6000502907C
:1009F00028464FF40051002201F034FA40F2602002
:100A00004FF0FF36C2F2000003A902AA03230096AA
:100A100001F0DCFF064628464FF40051012201F0A8
:100A200021FA0EB104B070BD9DF80A00607104B0E7
:100A300070BD000070B584B004464DF23C3040F605
:100A4000000503900020C4F60005029028464FF4EC
:100A50000051002201F006FA40F260204FF0FF360C
:100A6000C2F2000003A902AA0323009601F0AEFF20
:100A7000064628464FF40051012201F0F3F90EB169
:100A8000607A02E09DF80A006072B238B0FA80F035
:100A90004009A07204B070BDF0B5017E002900F0DD
:100AA0005C830279032A00F25883DFE802F0030B2B
:100AB000151F00BF4A1E032A01F0030C20D2002399
:100AC0000021B5E04A1E032A01F0030C80F02881C2
:100AD0000023002274E100BF4A1E032A01F0030C28
:100AE00080F0A681002300213AE200BF4A1E032ABB
:100AF00001F0030C80F0AC8200230022F8E200BF7A
:100B000001F0FC0E002300F11B020021CCB244F0E6
:100B10000205555D44F0010605F00F05965D2D04B4
:100B2000145D45EA0625254400EB8304C4F81451FE
:100B300041F00305EEB252FA85F5AF786D7807F013
:100B40000F073F04965D47EA05253544C4F8E45095
:100B500041F0060552FA85F6B678EDB245F0010788
:100B600006F00F06D75D3604555D46EA0726354484
:100B7000C4F8185101F10905EEB246F00207D75D3D
:100B800052FA85F507F00F076D783F04965D47EA46
:100B900005253544C4F8E85001F10C05EDB245F0E7
:100BA0000206965D45F0010706F00F06D75D360494
:100BB000555D46EA07263544C4F81C5101F10F057E
:100BC000EEB252FA85F5AF786D7807F00F073F0463
:100BD000965D47EA05253544C4F8EC5001F112054D
:100BE00052FA85F6B678EDB245F0010706F00F0629
:100BF000D75D3604555D46EA07263544C4F82051D2
:100C000001F11505EEB246F00207D75D52FA85F5FF
:100C100007F00F076D783F04965D47EA052504331A
:100C200035449E4501F11801C4F8F0507FF46EAFD1
:100C3000BCF1000F00F0918200F11B0252FA81F723
:100C4000BF78CEB246F0010507F00F07555D3F04AF
:100C5000965D47EA0527374400EB8306C6F8147112
:100C6000CF1CFDB252FA87F7BC787F7804F00F04EE
:100C70002404555D44EA07272F44BCF1010FC6F850
:100C8000E47000F06A828E1D52FA86F5AD78F6B2F5
:100C900046F0010405F00F05145D2D04965D5F1C00
:100CA00045EA04252E4400EB8707C7F8146101F1DB
:100CB0000906F5B252FA86F6B478767804F00F0495
:100CC0002404555D44EA06262E44BCF1020FC7F801
:100CD000E46000F0428201F10C0752FA87F6B67820
:100CE000FFB247F0010506F00F06555D3604D75DEB
:100CF000023346EA0526374400EB83000F31C0F883
:100D00001471CBB252FA81F18F78497807F00F074E
:100D10003F04D25C47EA01211144C0F8E410F0BD61
:100D200001F0FC0E002300F11B010022D4B244F0BC
:100D300002054D5D44F0010605F00F058E5D2D04A2
:100D40000C5D45EA0625254400EB8304C4F8E45015
:100D500042F00305EEB251FA85F5AF786D7807F0F1
:100D60000F073F048E5D47EA05253544C4F8E85077
:100D7000951D51FA85F6B678EDB245F0010706F0FB
:100D80000F06CF5D36044D5D46EA07263544C4F8AC
:100D9000EC5002F10905EEB246F00207CF5D51FAC0
:100DA00085F507F00F076D783F048E5D47EA05254E
:100DB000043335449E4502F10C02C4F8F050B5D11D
:100DC000BCF1000F00F0C98150FA82F14E7FCF7E56
:100DD000097F06F00F06360446EA01210F4400EBB6
:100DE0008301BCF1010FC1F8E47000F0B681D31C9F
:100DF00050FA83F35E7FDF7E1B7F06F00F0636041A
:100E000046EA03233B44BCF1020FC1F8E83000F08E
:100E1000A481063250FA82F0437FC27E007F03F045
:100E20000F031B0443EA00201044C1F8EC00F0BD9E
:100E300001F0FC0E002300F11B020021CCB244F0B3
:100E40000205555D44F0010605F00F05965D2D0481
:100E5000145D45EA0625254400EB8304C4F8E450FC
:100E600041F00305EEB252FA85F5AF786D7807F0E0
:100E70000F073F04965D47EA05253544C4F8145131
:100E800041F0060552FA85F6B678EDB245F0010755
:100E900006F00F06D75D3604555D46EA0726354451
:100EA000C4F8E85001F10905EEB246F00207D75D3B
:100EB00052FA85F507F00F076D783F04965D47EA13
:100EC00005253544C4F8185101F10C05EDB245F083
:100ED0000206965D45F0010706F00F06D75D360461
:100EE000555D46EA07263544C4F8EC5001F10F057C
:100EF000EEB252FA85F5AF786D7807F00F073F0430
:100F0000965D47EA05253544C4F81C5101F11205E8
:100F100052FA85F6B678EDB245F0010706F00F06F5
:100F2000D75D3604555D46EA07263544C4F8F050CF
:100F300001F11505EEB246F00207D75D52FA85F5CC
:100F400007F00F076D783F04965D47EA05250433E7
:100F500035449E4501F11801C4F820517FF46EAF6D
:100F6000BCF1000F00F0F98000F11B0252FA81F78A
:100F7000BF78CEB246F0010507F00F07555D3F047C
:100F8000965D47EA0527374400EB8306C6F8E47010
:100F9000CF1CFDB252FA87F7BC787F7804F00F04BB
:100FA0002404555D44EA07272F44BCF1010FC6F81D
:100FB000147100F0D2808E1D52FA86F5AD78F6B22B
:100FC00046F0010405F00F05145D2D04965D5F1CCD
:100FD00045EA04252E4400EB8707C7F8E46001F1D9
:100FE0000906F5B252FA86F6B478767804F00F0462
:100FF0002404555D44EA06262E44BCF1020FC7F8CE
:10100000146100F0AA8001F10C0752FA87F6B67855
:10101000FFB247F0010506F00F06555D3604D75DB7
:10102000023346EA0526374400EB83000F31C0F84F
:10103000E470CBB252FA81F18F78497807F00F074C
:101040003F04D25C47EA01211144C0F81411F0BDFD
:1010500001F0FC0E002300F11B010022D4B244F089
:1010600002054D5D44F0010605F00F058E5D2D046F
:101070000C5D45EA0625254400EB8304C4F81451B1
:1010800042F00305EEB251FA85F5AF786D7807F0BE
:101090000F073F048E5D47EA05253544C4F8185113
:1010A000951D51FA85F6B678EDB245F0010706F0C8
:1010B0000F06CF5D36044D5D46EA07263544C4F879
:1010C0001C5102F10905EEB246F00207CF5D51FA5C
:1010D00085F507F00F076D783F048E5D47EA05251B
:1010E000043335449E4502F10C02C4F82051B5D1B9
:1010F000BCF1000F31D050FA82F14E7FCF7E097FD4
:1011000006F00F06360446EA01210F4400EB830186
:10111000BCF1010FC1F814711FD0D31C50FA83F336
:101120005E7FDF7E1B7F06F00F06360446EA032350
:101130003B44BCF1020FC1F8183108BFF0BD0632C4
:1011400050FA82F0437FC27E007F03F00F031B043E
:1011500043EA00201044C1F81C01F0BD2DE9F04322
:1011600083B040F60005C4F6000581464CF23C37DA
:10117000002428464FF4005100220297019400F009
:1011800071FE40F260204FF0FF38C2F2000002A969
:1011900001AA0323CDF8008001F018FC064628467A
:1011A0004FF40051012200F05DFE1EB99DF80600CB
:1011B00089F8100028464FF400510022029701944C
:1011C00000F050FE40F26020C2F2000002A901AA25
:1011D0000323CDF8008001F0F9FB064628464FF4C2
:1011E0000051012200F03EFE16B1002003E000BFD6
:1011F0009DF80600000989F811004CF23C3002907D
:101200000020019028464FF40051002200F02AFEF1
:1012100040F260204FF0FF37C2F2000002A901AA9D
:101220000323009701F0D2FB064628464FF40051F5
:10123000012200F017FE2EB1002089F8120003B041
:10124000BDE8F0839DF8060000F00F0089F8120059
:1012500003B0BDE8F083000070B584B004464CF2E2
:101260003C4040F6000503900020C4F600050290C3
:1012700028464FF40051002200F0F4FD40F26020B7
:101280004FF0FF36C2F2000003A902AA0323009622
:1012900001F09CFB064628464FF40051012200F065
:1012A000E1FD0EB104B070BD9DF80A00E07304B01A
:1012B00070BD000070B584B004464CF23C2040F68E
:1012C000000503900020C4F60005029028464FF464
:1012D0000051002200F0C6FD40F260204FF0FF36C2
:1012E000C2F2000003A902AA0323009601F06EFBDC
:1012F000064628464FF40051012200F0B3FD0EB11E
:1013000004B070BD9DF80A00A07104B070BD00006B
:1013100070B584B004464CF23C0040F600050390E2
:101320000020C4F60005029028464FF40051002228
:1013300000F098FD40F260204FF0FF36C2F200004E
:1013400003A902AA0323009601F040FB06462846A3
:101350004FF40051012200F085FD0EB104B070BDC4
:101360009DF80A00A07304B070BD00002DE9F0479D
:1013700084B040F6000580464CF23C70C4F600058F
:1013800003904FF0000A28464FF400510022CDF898
:1013900008A000F067FD40F26026C2F200064FF0A0
:1013A000FF3903A902AA30460323CDF8009001F0CB
:1013B0000DFB074628464FF40051012200F052FD74
:1013C0009DF80A404CF63C00002F18BF544603908D
:1013D00028464FF400510022CDF808A000F042FD4D
:1013E00003A902AA30460323CDF8009001F0EEFADB
:1013F000064628464FF40051012200F033FD9DF8C7
:101400000A00002E18BF5046E1B241EA0020A8F8B9
:10141000160004B0BDE8F0872DE9F04784B040F62F
:10142000000580464CF63C10C4F6000503904FF0D2
:10143000000A28464FF400510022CDF808A000F021
:1014400011FD40F26026C2F200064FF0FF3903A9F9
:1014500002AA30460323CDF8009001F0B7FA074600
:1014600028464FF40051012200F0FCFC9DF80A4090
:101470004CF63C20002F18BF5446039028464FF4EA
:1014800000510022CDF808A000F0ECFC03A902AA4C
:1014900030460323CDF8009001F098FA064628461E
:1014A0004FF40051012200F0DDFC9DF80A00002EEF
:1014B00018BF5046E1B241EA0020A8F8140004B079
:1014C000BDE8F087F0B583B040F600070446C4F6E7
:1014D000000700F0A9FA022000F0C2FBC420072197
:1014E0000122012300F048FB637CC3200721042272
:1014F00000F042FBA37CC3200321042200F03CFB4C
:10150000EF20A0714CF23320C0F2EF0002900020D7
:10151000019038464FF40051002200F0A3FC40F245
:101520006026C2F200064FF0FF3502A901AA30463C
:101530000323009501F04AFA304601F09BF9012897
:10154000FAD138464FF40051012200F08BFC2046BE
:10155000FFF702F903B0F0BDB0B5027E002A00F03B
:101560004F810021531ECFF6F071032B02F0030CC4
:1015700002D20023B0E000BF9FEDA20A9FEDA21AA5
:101580009FEDA22A9FEDA23A9FEDA24A02F0FC0E27
:1015900000F5C0720023B3EE095A00BF52F86C4C3C
:1015A0000433250344BF0C4342F86C4C06EE104A4A
:1015B000B8EEC66A26EE006A26EE016A52F89C4C26
:1015C00036EE026A250302ED0F6A44BF0C4342F86F
:1015D0009C4C06EE104AB8EEC66A26EE036A26EE6A
:1015E000046A52F8684C36EE056A250302ED036A78
:1015F00044BF0C4342F8684C06EE104AB8EEC66A87
:1016000026EE006A26EE016A52F8984C36EE026A1F
:10161000250302ED0E6A44BF0C4342F8984C06EED7
:10162000104AB8EEC66A26EE036A26EE046A52F83D
:10163000644C36EE056A250302ED026A44BF0C4392
:1016400042F8644C06EE104AB8EEC66A26EE006A0E
:1016500026EE016A52F8944C36EE026A250302ED3A
:101660000D6A44BF0C4342F8944C06EE104AB8EEA3
:10167000C66A26EE036A26EE046A52F8604C36EE1D
:10168000056A250302ED016A44BF0C4342F8604C31
:1016900006EE104AB8EEC66A26EE006A26EE016A29
:1016A00052F8904C36EE026A250302ED0C6A44BFF4
:1016B0000C4342F8904C06EE104AB8EEC66A26EE8D
:1016C000036A26EE046A36EE056A82ED006A9E45DC
:1016D00002F110027FF462AFBCF1000F00F09080C5
:1016E00000EB830EDEF814219FED461A140342BF6F
:1016F0000EF58A740A43226000EE102AB8EEC00A82
:101700009FED412A20EE010A20EE023A9FED3F0AAA
:10171000744654F8E42F33EE003A150384ED183A7A
:1017200044BF0A43226003EE102AB8EEC35A9FED6D
:10173000383A9FED384A25EE035A25EE046AB3EE97
:10174000095A36EE056ABCF1010F8EED5D6A57D07D
:101750005A1C00EB820EDEF81421140342BF0EF572
:101760008A740A43226006EE102AB8EEC66A26EE94
:10177000016A744626EE026A54F8E42F36EE006AD7
:10178000150384ED186A44BF0A43226006EE102A4E
:10179000B8EEC66A26EE036A26EE046A36EE056ADD
:1017A000BCF1020F8EED5D6A08BFB0BD9A1C00EB64
:1017B0008200D0F81421130342BF00F58A730A4354
:1017C0001A6006EE102AB8EEC66A26EE011A034623
:1017D00021EE021A53F8E42F31EE000A150383EDCF
:1017E000180A44BF0A431A6000EE102AB8EEC00A75
:1017F00020EE030A20EE040A30EE050A80ED5D0AB1
:10180000B0BD00BF0000C8430000003700002F44F7
:1018100000008242000080362DE9F04F83B040F690
:10182000000540F260280446C4F6000500264FF08B
:10183000FF3AC2F200080DF108090DF1040B03E0B4
:101840002672012000F00CFA4CF63C50029028461B
:101850004FF400510022019600F004FB4046494637
:101860005A460323CDF800A001F0B0F807462846F9
:101870004FF40051012200F0F5FA002FE0D19DF85D
:10188000060010F001002072DBD02379C020012176
:10189000022200F071F903B0BDE8F08F2DE9F04F9E
:1018A00083B040F6000540F260280446C4F6000507
:1018B00000264FF0FF3AC2F200080DF108090DF1C1
:1018C000040B03E02672012000F0CAF94CF63C50EC
:1018D000029028464FF400510022019600F0C2FA0F
:1018E000404649465A460323CDF800A001F06EF861
:1018F000074628464FF40051012200F0B3FA002FAA
:10190000E0D19DF8060010F001002072DBD0637872
:10191000C0200421012200F02FF903B0BDE8F08FB0
:101920002DE9F04F83B040F6000540F260280446F0
:10193000C4F6000500264FF0FF3AC2F200080DF190
:1019400008090DF1040B03E02672012000F088F96C
:101950004CF63C50029028464FF40051002201966C
:1019600000F080FA404649465A460323CDF800A0CD
:1019700001F02CF8074628464FF40051012200F0F0
:1019800071FA002FE0D19DF8060010F001002072DE
:10199000DBD02378C0200721032200F0EDF803B04C
:1019A000BDE8F08F2DE9F04F83B040F6000540F21E
:1019B00060280446C4F6000500264FF0FF3AC2F244
:1019C00000080DF108090DF1040B03E02672012057
:1019D00000F046F94CF63C50029028464FF4005176
:1019E0000022019600F03EFA404649465A4603233B
:1019F000CDF800A000F0EAFF074628464FF400515A
:101A0000012200F02FFA002FE0D19DF8060010F01F
:101A100001002072DBD0A378C0200321012200F056
:101A2000ABF803B0BDE8F08F2DE9F04F83B040F67E
:101A3000000440F260280546C4F6000400264FF07A
:101A4000FF3AC2F200080DF108090DF1040B03E0A2
:101A50002E72012000F004F94CF63C500290204612
:101A60004FF400510022019600F0FCF9404649462F
:101A70005A460323CDF800A000F0A8FF07462046F1
:101A80004FF40051012200F0EDF9002FE0D19DF854
:101A9000060010F001002872DBD0A87B4CF2330165
:101AA0008DF80A000020ADF808108DF80B000190A9
:101AB00020464FF40051002200F0D4F940F2602596
:101AC000C2F200054FF0FF3702A901AA28460323FE
:101AD000009700F07BFF00BF284600F0CBFE0128F6
:101AE000FAD120464FF40051012200F0BBF903B0B7
:101AF000BDE8F08F2DE9F04F83B040F6000540F2CD
:101B000060280446C4F6000500264FF0FF3AC2F2F2
:101B100000080DF108090DF1040B03E02672012005
:101B200000F09EF84CF63C50029028464FF40051CD
:101B30000022019600F096F9404649465A46032392
:101B4000CDF800A000F042FF074628464FF40051B0
:101B5000012200F087F9002FE0D19DF8060010F077
:101B600001002072DBD0E378C0200221012200F0C6
:101B700003F803B0BDE8F08F2DE9F04784B00546C7
:101B8000002007294FF0010601902DD81746082A9A
:101B90002AD840F600083C20C4F600088DF80C0056
:101BA00000200C46ADF80E00029040464FF4005164
:101BB000002299468DF80D5000F054F940F2602053
:101BC0004FF0FF3AC2F2000003A902AA0323CDF8A6
:101BD00000A000F0FBFE064640464FF400510122F3
:101BE00000F040F926B10126304604B0BDE8F08788
:101BF0000AFA07F1E21B9DF80A00C943013291403D
:101C000009FA02F20A408843104433218DF80C107F
:101C10008DF80E0040464FF4005100228DF80D5013
:101C200000F020F940F26024C2F2000403A901AAE6
:101C300020460323CDF800A000F0C8FE064600BFF2
:101C4000204600F017FE0128FAD140464FF400511B
:101C5000012200F007F9304604B0BDE8F08700002B
:101C6000B0B5044600F004F9054640F20000C2F2A7
:101C700000000078611C18BF044400BF00F0F8F8B1
:101C8000401BA042FAD3B0BD2DE9F04F84B08E4680
:101C900041F20002C4F60002DEF800400521904245
:101CA000019008BF0421002C009100F0D78001981A
:101CB000002500F138424FEAB223009801270026A0
:101CC0004FF00008042B38BF18460090CDF808E00C
:101CD0000EE000BFDEF8004008F1010834FA07F119
:101CE00006F1020607F1010705F1040500F0B680D0
:101CF000A7F1010A012000FA0AF314EA0309E9D066
:101D0000DEF804C00CF0030BABF10104012C17D872
:101D10000198744681680322E468B2409143B4405C
:101D20002143816041684FEA480E9943CCF3001388
:101D300003FA0AF30446D043194361600CE000BF84
:101D40000321B140019CC843BBF1030FB64603D148
:101D5000B6464FF0030B23E0E168029A0140936816
:101D6000BBF1020F03FA0EF341EA0301E16017D160
:101D70006FF0030101EA5A01214405F01C040F230E
:101D8000D1F820C003FA04FB13692CEA0B0CA34022
:101D900043EA0C03019C0B62D2F804C00CF0030B65
:101DA00021680BFA0EF2014011432160DDF808E0D2
:101DB0001CF4403F8ED041F21800C4F202000168CA
:101DC00040F2004C41F0010101600168C4F2010CD5
:101DD00001F00101039103992AF003014FF6084A2B
:101DE0006144CFF6FF7A05F00C030F2051F80A206A
:101DF00000FA03F40098A24300FA03F31A4341F8EF
:101E00000A20DCF80010DEF8042041EA0903D403BC
:101E100058BF21EA0903CCF80030DCF80410940321
:101E200041EA090358BF21EA0903CCF80430DCF881
:101E3000081040F20C4041EA0903D40258BF21EADD
:101E40000903CCF80830C4F201000168920241EAAB
:101E5000090358BF21EA090303603BE704B0BDE86A
:101E6000F08F00001823002A08BF2823C1507047B4
:101E700040F2C420C2F200000068704790F8412090
:101E8000202A03D190F84020012A01D10220704776
:101E9000242280F841200268136823F001031360B4
:101EA000136823F480531360136819431160116899
:101EB00041F001011160202180F84110002180F8DB
:101EC000401008467047000090F84120202A03D1B6
:101ED00090F84020012A01D102207047242280F886
:101EE00041200268136823F001031360136823F490
:101EF000706343EA01211160116841F00101116032
:101F0000202180F84110002180F8401008467047D9
:101F1000002804BF0120704710B5044690F8410026
:101F200028B9002084F84000204600F043F824201F
:101F300084F8410094E80910E2680168012A21F060
:101F40000101016023F070610161816821F40041A9
:101F5000816003D14CF40041816007E04CF40441FE
:101F6000022A816004BF4FF400614160416804F1BE
:101F7000100C41F0007141F400414160C16821F44E
:101F80000041C1609CE80E10114341EA0321C16089
:101F9000216A41EA0C010160016841F00101016020
:101FA00000202021606484F84110206384F84200FE
:101FB00010BD000010B586B0006845F20041C4F2C3
:101FC0000001884202D006B010BD00BF41F21404E7
:101FD000C4F20204206801A940F480202060206837
:101FE00000F48020019001984FF44070019012207D
:101FF000029000200390032004900420059040F2FA
:102000000040C4F60000FFF73FFEA06840F4001057
:10201000A060A06800F400100090009806B010BD09
:1020200040F2000040F2C421C2F20000C2F20001FE
:1020300000780A68104408607047000080B542F2DA
:102040000000C4F20200016841F0100101600320A9
:1020500000F072F80F2000F005F800F027F80020DB
:1020600080BD000070B540F20006C2F2000640F2EA
:1020700008013278C2F200014FF47A730968B3FBA9
:10208000F2F20446B1FBF2F1084600F011FE0F2C0B
:102090004FF0010508D838B94FF0FF302146002233
:1020A000002500F01DF87460284670BD82B041F232
:1020B0001800C4F20200016841F0010101600168EA
:1020C00001F0010101910199416841F080514160A5
:1020D000406800F080500090009802B07047000007
:1020E00010B54EF60C5CCEF2000CDCF80030C3F3F9
:1020F000022E8EF00704042C28BF0424BEF1030333
:102100004FF0FF3E0EFA04F438BF0023A14399407C
:102110000EFA03F39A43114300F00F02043A6244AB
:1021200009010C3200F16043B0F1FF3FC8BF03F575
:102130006442117010BD00004EF60C51CEF2000149
:102140000A684FF6FF031A4060F30A2242F08060EB
:1021500040F0FD70086070472DE9F04182B0044600
:10216000807841F23006C007C4F2020656D056F815
:10217000140C10F080580BD156F8140C40F080501D
:1021800046F8140C56F8140C00F080500190019899
:1021900047F20007C4F200073868C00512D4386857
:1021A00040F480703860FFF763FE05463868C0056C
:1021B00008D4FFF75DFE401B6428F7D9032002B066
:1021C000BDE8F08156F8100C10F4407015D061682D
:1021D00001F44071884210D056F8100C40F2404291
:1021E000C4F24222012320F4407113600023C0078F
:1021F000136046F8101C40F0A38056F8100C61687C
:1022000020F440700843B8F1000F46F8100C05D1D7
:1022100056F8140C20F0805046F8140C2068C107C2
:102220001CD1810722D4410728D481062ED48103F2
:1022300034D441063CD4010742D4C10648D48105B8
:102240004ED4010656D4C1055ED4C10466D48004C0
:102250006CD4002002B0BDE8F08100BF3168A268F4
:1022600021F00301114331608107DCD53168E26858
:1022700021F44031114331604107D6D531682269DC
:1022800021F44021114331608106D0D53168E269E3
:1022900021F01001114331608103CAD556F82C1C7E
:1022A000A26B21F48001114346F82C1C4106C2D5D3
:1022B0003168226A21F02001114331600107BCD549
:1022C0003168626921F4401111433160C106B6D50D
:1022D0003168A26921F44001114331608105B0D514
:1022E00056F82C1CE26A21F40001114346F82C1C1C
:1022F0000106A8D556F8041C626A21F4F87111434E
:1023000046F8041CC105A0D556F8041CA26A21F4A5
:102310007851114346F8041CC10498D53168226BEA
:1023200021F4807111433160800492D53068616B73
:1023300020F4007008433060002002B0BDE8F08156
:10234000FFF796FD054641F2883700BF56F8100C9E
:1023500080073FF552AFFFF78BFD401BB8424FF0AF
:102360000300F3D9E9E700002DE9F04381B000282C
:1023700077D042F20008C4F202080446D8F8000000
:102380000D4600F0070088420CD2D8F8000020F07B
:1023900007002843C8F80000D8F8000000F0070044
:1023A000A8425ED1206841F204098107C4F2020903
:1023B00007D5D9F80010A26821F0F0011143C9F83F
:1023C0000010C00744D1D8F8000000F00700A84270
:1023D0000CD9D8F8000020F007002843C8F8000006
:1023E000D8F8000000F00700A8423AD12068410761
:1023F00007D5D9F80010E26821F4E0611143C9F86B
:102400000010000708D5D9F80000216920F46050B9
:1024100040EAC100C9F80000D9F8002002F00C0021
:10242000082841F20020C0F27A0051D143F2402343
:10243000C2F38341C0F60003595CD9F82830D203B7
:102440003CD440F60010C0F23D00484340E000BFDD
:10245000606802280AD001282AD159F8041C89038F
:1024600008D4012001B0BDE8F08300BF59F8041C76
:102470008901F6D5D9F8001021F003010843C9F805
:102480000000FFF7F5FC064641F28837D9F8000056
:10249000616800F00C00B0EB810F94D0FFF7E8FC0E
:1024A000801BB842F2D9032001B0BDE8F08300BF21
:1024B00059F8041C8907D4D5DCE700BF03F00F02EC
:1024C00043F25023C0F600039A5CB0FBF2F048439D
:1024D000D9F8001043F23022C1F30311C0F6000214
:1024E000515C40F2080220FA01F140F20400C2F20D
:1024F00000000068C2F200021160FFF7B3FD002087
:1025000001B0BDE8F08300002DE9F04182B0002861
:1025100050D00446007841F20006C007C4F202061B
:102520000AD0706800F00C00042840F08580306804
:10253000800301D56068E8B3207880071AD57068F9
:1025400010F00C0F09D0706800F00C00082840F063
:10255000A5807068C00300F1A1803068800702D5B3
:102560002069012826D13068616920F0F80040EA2E
:10257000C10030602078000720D42078400735D48F
:10258000E56995B1706800F00C00082840F0C28041
:10259000012D0FD07068216A00F480328A4209D17F
:1025A000616A00F47010884204D1002002B0BDE8D6
:1025B000F08100BF012002B0BDE8F081A0690028D1
:1025C00000F094800020C4F242200121C0F8801461
:1025D000FFF74EFC054600BF706A8007CDD4FFF7B9
:1025E00047FC401B0228F7D91CE100BFF06910F03E
:1025F000805808D1F06940F08050F061F06900F037
:1026000080500190019847F20007C4F20007386833
:10261000C00559D4386840F480703860FFF728FC52
:10262000054600BF3868C0054ED4FFF721FC401BAB
:102630006428F7D9F6E000BF706800F00C000828A5
:1026400003D17068C0033FF572AF6068B0F5A02F8A
:1026500000F09480B0F5803F00F09480002840F0B6
:102660009580306820F480303060306820F480201D
:102670003060F06AA16820F00F000843F062FFF7B5
:10268000F7FB0546306880037FF556AFFFF7F0FB98
:10269000401B64284FF00300F4D987E72069002825
:1026A00040F20000C4F2422056D001210160FFF741
:1026B000DFFB0546306880073FF555AFFFF7D8FBD5
:1026C000401B0228F6D9ADE0E068002800F07A80CF
:1026D000052800F09180012800F09280306A20F0F7
:1026E00001003062306A20F004008CE00020C4F267
:1026F00042200021C0F88014FFF7BAFB054600BF56
:10270000706A80077FF539AFFFF7B2FB401B0228E4
:10271000F6D987E00027C4F2422700203866FFF789
:10272000A7FB022D05460BD13068800140F188805F
:10273000FFF79EFB401B02284FF00300F4D935E75A
:10274000306880017FF531AFFFF792FB401B022814
:102750004FF00300F4D929E700210160FFF788FB5F
:10276000054600BF306880077FF504AFFFF780FBA8
:10277000401B02284FF00300F4D917E7306840F4FB
:1027800080203060306840F4803006E0306820F40B
:1027900080303060306820F480203060F06AA168BA
:1027A00020F00F000843F062FFF762FB054600BF10
:1027B000306880033FF5C0AEFFF75AFB401B64282A
:1027C000F6D92FE0306A20F001003062306A20F044
:1027D00004003062FFF74CFB054641F2883700BF2A
:1027E000306A800722D5FFF743FB401BB8424FF009
:1027F0000300F5D9DAE600BF306A40F00400306229
:10280000306A40F001003062FFF732FB054641F2CA
:10281000883700BF306A800708D4FFF729FB401BC8
:10282000B842F7D9032002B0BDE8F081B8F1000F3B
:102830007FF4A6AEF06920F08050F061A0E600BF02
:102840007068D4E9082120F47410084310437060C4
:1028500001203866FFF70CFB044600BF306880019A
:102860003FF5A3AEFFF704FB001B02284FF0030067
:10287000F4D99BE690F85D0070470000002804BF83
:1028800001207047B0B50446406A28B1002020619D
:1028900004F1140006E000BF6068B0F5827F03D049
:1028A00004F11C00002101600025A56294F85D0080
:1028B00020B9204684F85C5000F052F8022084F8D9
:1028C0005D002068D4F80CE00268BEF5E06F22F0ED
:1028D000400202604EF4006298BF0125B2F5706FAD
:1028E0001CBF0023A3624FEA053CD4E90135D4E9BB
:1028F000042103F4827305F404452B4402F0020220
:102900001A44A36901F00101E569114403F400725E
:10291000114405F03802256A114405F08002A56AC9
:10292000114405F40052114301600421626A0EF45F
:10293000706501EA1341636B45EA0C0502F0100271
:10294000294303F00803114319434160C16921F48D
:102950000061C16100200121206684F85D10B0BDD6
:1029600080B586B0006843F20001C4F201018842DC
:1029700002D006B080BD00BF41F21400C4F20200D4
:10298000416841F480514160416801F480510191F6
:102990000199016841F480210160006801A900F4F7
:1029A00080200190019838200190022002900020A0
:1029B0000390032004900520059040F20040C4F6E7
:1029C0000000FFF761F906B080BD00002DE9F0437B
:1029D00081B0044690F85C00012803D1022001B0C8
:1029E000BDE8F08301201E4615460F4684F85C00C2
:1029F000FFF73EFA94F85D108146012940F0B0805F
:102A0000002F4FF0010018BF002D00F04681002E6E
:102A100000F0438194F85D0004281CBF052084F871
:102A20005D00002020662564A4F84660A4F8446098
:102A3000A763E687C4E913002068A687E1684268B7
:102A4000B1F5E06F22F48052134698BF03F580532E
:102A5000012E88BF134643600268520603D4026801
:102A600042F0400202606268731EB2FA82F2B3FA68
:102A700083F3DDF8208052095B09B1F5E06F43EA8A
:102A800002017DD931B137F8021BC160A763E08F25
:102A90000138E087012518F1010035D102E000BFBF
:102AA000FFF7E6F9E08F20B9B4F84600002800F0FF
:102AB000D7802068816889070CD5E18F51B1012D3D
:102AC00008D1A16B002531F8022BC260A163E18F10
:102AD0000139E1878168C907E2D0B4F846100029BE
:102AE000DED0C068216C012521F8020B2164B4F806
:102AF00046000138A4F84600D2E700BFFFF7B8F956
:102B0000A0EB0900404545D2E08F20B9B4F846005B
:102B1000002800F0A5802068816889070CD5E18F26
:102B200051B1012D08D1A16B002531F8022BC260F3
:102B3000A163E18F0139E1878168C907DED0B4F86C
:102B400046100029DAD0C068216C012521F8020B5B
:102B50002164B4F846000138A4F84600CEE700BF6F
:102B60006068B0F5827F09D1A06800284FF00200AC
:102B700008BF042940F0918042E700BF02208CE0AA
:102B800099B1E18F02294FF6FE7105D337F8022B78
:102B9000C26006E0032080E03A7801310273A06B46
:102BA000471CA763E08F0844E087012608F1010570
:102BB000E08F18B9B4F84600002851D02068816829
:102BC00089071AD5E18FC1B1012E16D1E18F0229F3
:102BD00008D3A16B31F8022BC260A163E18F0239E7
:102BE00009E000BFA16B09780173A16B2068013176
:102BF000A163E18F01390026E1878168C90725D0EB
:102C0000B4F8461011B3B4F84610022912D3C168C3
:102C1000226C22F8021B2264B4F846100239A4F890
:102C20004610B4F8461001290FD8416841F480518C
:102C300041600AE0007B216C0870206C0130206448
:102C4000B4F846000138A4F846000126FFF710F951
:102C5000002DADD0A0EB09004045A9D303201CE016
:102C600020464FF4C05142464B4600F001F968B986
:102C7000204641464A4600F0BFF938B920464FF495
:102C8000C06142464B4600F0F3F878B1206E40F048
:102C900020002066202020660120012184F85D109C
:102CA000002184F85C1001B0BDE8F0830020F4E757
:102CB000411E0020B0EB116F1CBF012070474EF287
:102CC0001002CEF2000251604EF62351CEF2000106
:102CD000F0230B700721906011607047FEE7000041
:102CE0002DE9F04786B0002741F214000597C4F2A1
:102CF0000200016840F2004A41F4002101600168CD
:102D0000C4F6000A01F400210091009901680AF557
:102D1000806541F4800101600168012201F48001B5
:102D20000091009901684FF4005641F400310160B0
:102D300001684FF0010801F4003100910099016829
:102D400041F48021016000684FF4005100F48020BC
:102D5000009000982846FFF785F850464021002251
:102D60004FF04009FFF77EF8019601AE1124284686
:102D70003146CDE902480497FEF786FF4FF4847090
:102D8000CDE901074FF0904031460397FEF77CFFF5
:102D900050463146CDE90194CDE90378FEF774FF42
:102DA00006B0BDE8F087000080B540F2142045F27F
:102DB0000041C2F20000C4F2000148F6D3520023E1
:102DC000C1F280024FF0010C80E80E10C0E904331C
:102DD000C0E906330362FFF79BF8002818BFFDF730
:102DE00073FC40F21420C2F200000021FFF746F805
:102DF000002818BFFDF768FC40F21420C2F2000062
:102E00000021FFF761F8002808BF80BDBDE88040C1
:102E1000FDF75ABC10B540F2602043F20001C2F247
:102E20000000C4F201014FF4827200234FF4E06C01
:102E30004FF4007E102480E80E1007210822C0E91C
:102E40000433C0E906E4C0E90833C0E90A31C0E947
:102E50000C32FFF713FD002808BF10BDBDE810407D
:102E6000FDF732BCFEE70000FEE7000070470000FF
:102E70002DE9F04782B000261F4690460D46814658
:102E80008DF80360FEF7F4FF381A00EB0807FEF731
:102E9000EFFF40F20801C2F200010968232251430A
:102EA000090DD9F8004079430191A168294271D0F8
:102EB000824618F1010037D0B5F5C06F1CD100BFB4
:102EC000207B8DF803009DF80300FEF7D1FFA0EBF7
:102ED0000A00B84262D2019801990028A1F10101CB
:102EE0000191D9F80010896808BF074611F4C06F36
:102EF000E6D100264EE000BFFEF7BAFFA0EB0A00C5
:102F0000B8424BD2019801990028A1F10101019129
:102F1000D9F80010896808BF07462942ECD100267D
:102F2000304602B0BDE8F0870026B5F5C06F25D168
:102F3000207B8DF803009DF80300A06810F4C06F9B
:102F4000EDD0207B8DF803009DF80300A06810F4FD
:102F5000C06FE4D0207B8DF803009DF80300A068CB
:102F600010F4C06FDBD0207B8DF803009DF80300C8
:102F7000A06810F4C06FDBD10CE000BFA06828424D
:102F8000CDD0A0682842CAD0A0682842C7D0A06887
:102F90002842F3D1304602B0BDE8F087D9E90001FC
:102FA0004268B1F5827F22F0E00242600BD1D9F88D
:102FB0000810B1F5004F02D0B1F5806F03D1016860
:102FC00021F040010160D9F82810B1F5005F07D168
:102FD000016821F400510160016841F40051016071
:102FE000012089F85D00002089F85C000326304646
:102FF00002B0BDE8F0870000F0B581B015460E467E
:103000000446FEF735FF281A8719FEF731FF40F214
:103010000801C2F200010968C1F3CB317943009184
:1030200021688A68120622D50546701C15D000BF9B
:10303000FEF71EFF401BB8421CD2009800990028E2
:10304000A1F1010100912168896808BF07460806BF
:10305000EED40CE08868000609D58868000606D51D
:103060008868000644BF88685FEA0060F2D40020E8
:1030700001B0F0BDD4E900014268B1F5827F22F0D1
:10308000E00242600AD1A168B1F5004F02D0B1F56B
:10309000806F03D1016821F040010160A16AB1F5A0
:1030A000005F07D1016821F400510160016841F41B
:1030B00000510160012084F85D00002084F85C006C
:1030C000032001B0F0BD000070470000FEF7A8BF6C
:1030D0004EF68850CEF20000016841F470010160A4
:1030E00070470000FEE700009EB0FEF7A7FF6846AD
:1030F000002404303821CDE91944CDE91744FDF707
:1031000066F90120149018904FF4E0104FF48031CC
:1031100002251D9014A8CDE91514CDE91B51FFF728
:10312000F3F928B1EFF3108072B600BFFEE700BFDD
:103130000F20CDE90F054FF48060CDE912040FA8F0
:1031400002211194FFF710F920B1EFF3108072B64D
:10315000FEE700BF20200090102007906846FEF791
:10316000FBFF28B1EFF3108072B600BFFEE700BF8F
:10317000FFF7B6FDFFF718FEFFF74CFE40F27004B4
:10318000C2F200042046FDF755FC2046FEF79AF9EE
:103190000220C0F20100206000202071EB20A0710D
:1031A00047F65610C5F62D60606140F20A40A4F85B
:1031B00011000A2020762046FDF724FB2046FEF76A
:1031C000A7F82046FEF776F82046FDF7C7FF204611
:1031D000FEF742F82046FEF7C9F82046FEF71CF934
:1031E0002046FEF767F82046FDF7A6FB2046FDF7D0
:1031F000F3FB60794007F3D52046FDF7D5FB204669
:10320000FDF74AFC2046FEF7A7F92046FDF7A4FA91
:10321000FDF7C4FBE4E7F1EE100A4FF6FF71C0F2D0
:10322000C03120EA010040F04070E1EE100A704722
:103230000000000000000000010203040607080966
:1032400002030405060708090A0B0C0D0E0F1010E7
:103250000102030405060708090A0B0C0D0E0F10E6
:10326000803200080000002010000000C4010008A7
:103270009032000810000020B8080000E0010008AB
:10328000010000001000000000127A0000000000A1
:040000050800018965
:00000001FF
